{
  "_format": "hh-sol-artifact-1",
  "contractName": "Voting",
  "sourceName": "contracts/Voting.sol",
  "abi": [
    {
      "inputs": [],
      "stateMutability": "nonpayable",
      "type": "constructor"
    },
    {
      "anonymous": false,
      "inputs": [
        {
          "indexed": false,
          "internalType": "uint256",
          "name": "candidateId",
          "type": "uint256"
        },
        {
          "indexed": false,
          "internalType": "string",
          "name": "name",
          "type": "string"
        }
      ],
      "name": "CandidateAdded",
      "type": "event"
    },
    {
      "anonymous": false,
      "inputs": [
        {
          "indexed": false,
          "internalType": "uint256",
          "name": "candidateId",
          "type": "uint256"
        }
      ],
      "name": "CandidateDeleted",
      "type": "event"
    },
    {
      "anonymous": false,
      "inputs": [
        {
          "indexed": false,
          "internalType": "address",
          "name": "voter",
          "type": "address"
        },
        {
          "indexed": false,
          "internalType": "uint256",
          "name": "candidateId",
          "type": "uint256"
        }
      ],
      "name": "VoteCast",
      "type": "event"
    },
    {
      "inputs": [
        {
          "internalType": "string",
          "name": "_name",
          "type": "string"
        }
      ],
      "name": "addCandidate",
      "outputs": [],
      "stateMutability": "nonpayable",
      "type": "function"
    },
    {
      "inputs": [
        {
          "internalType": "uint256",
          "name": "",
          "type": "uint256"
        }
      ],
      "name": "candidates",
      "outputs": [
        {
          "internalType": "uint256",
          "name": "id",
          "type": "uint256"
        },
        {
          "internalType": "string",
          "name": "name",
          "type": "string"
        },
        {
          "internalType": "uint256",
          "name": "voteCount",
          "type": "uint256"
        }
      ],
      "stateMutability": "view",
      "type": "function"
    },
    {
      "inputs": [],
      "name": "candidatesCount",
      "outputs": [
        {
          "internalType": "uint256",
          "name": "",
          "type": "uint256"
        }
      ],
      "stateMutability": "view",
      "type": "function"
    },
    {
      "inputs": [
        {
          "internalType": "uint256",
          "name": "_candidateId",
          "type": "uint256"
        }
      ],
      "name": "deleteCandidate",
      "outputs": [],
      "stateMutability": "nonpayable",
      "type": "function"
    },
    {
      "inputs": [],
      "name": "endVoting",
      "outputs": [],
      "stateMutability": "nonpayable",
      "type": "function"
    },
    {
      "inputs": [
        {
          "internalType": "uint256",
          "name": "_candidateId",
          "type": "uint256"
        }
      ],
      "name": "getCandidate",
      "outputs": [
        {
          "internalType": "uint256",
          "name": "",
          "type": "uint256"
        },
        {
          "internalType": "string",
          "name": "",
          "type": "string"
        },
        {
          "internalType": "uint256",
          "name": "",
          "type": "uint256"
        }
      ],
      "stateMutability": "view",
      "type": "function"
    },
    {
      "inputs": [],
      "name": "getTotalCandidates",
      "outputs": [
        {
          "internalType": "uint256",
          "name": "",
          "type": "uint256"
        }
      ],
      "stateMutability": "view",
      "type": "function"
    },
    {
      "inputs": [],
      "name": "getTotalVotes",
      "outputs": [
        {
          "internalType": "uint256",
          "name": "",
          "type": "uint256"
        }
      ],
      "stateMutability": "view",
      "type": "function"
    },
    {
      "inputs": [
        {
          "internalType": "address",
          "name": "_voter",
          "type": "address"
        }
      ],
      "name": "getVoterVote",
      "outputs": [
        {
          "internalType": "uint256",
          "name": "",
          "type": "uint256"
        }
      ],
      "stateMutability": "view",
      "type": "function"
    },
    {
      "inputs": [],
      "name": "owner",
      "outputs": [
        {
          "internalType": "address",
          "name": "",
          "type": "address"
        }
      ],
      "stateMutability": "view",
      "type": "function"
    },
    {
      "inputs": [
        {
          "internalType": "uint256",
          "name": "durationInMinutes",
          "type": "uint256"
        }
      ],
      "name": "startVoting",
      "outputs": [],
      "stateMutability": "nonpayable",
      "type": "function"
    },
    {
      "inputs": [],
      "name": "totalVotes",
      "outputs": [
        {
          "internalType": "uint256",
          "name": "",
          "type": "uint256"
        }
      ],
      "stateMutability": "view",
      "type": "function"
    },
    {
      "inputs": [
        {
          "internalType": "uint256",
          "name": "_candidateId",
          "type": "uint256"
        }
      ],
      "name": "vote",
      "outputs": [],
      "stateMutability": "nonpayable",
      "type": "function"
    },
    {
      "inputs": [
        {
          "internalType": "address",
          "name": "",
          "type": "address"
        }
      ],
      "name": "voterToCandidate",
      "outputs": [
        {
          "internalType": "uint256",
          "name": "",
          "type": "uint256"
        }
      ],
      "stateMutability": "view",
      "type": "function"
    },
    {
      "inputs": [],
      "name": "votingActive",
      "outputs": [
        {
          "internalType": "bool",
          "name": "",
          "type": "bool"
        }
      ],
      "stateMutability": "view",
      "type": "function"
    },
    {
      "inputs": [],
      "name": "votingEndTime",
      "outputs": [
        {
          "internalType": "uint256",
          "name": "",
          "type": "uint256"
        }
      ],
      "stateMutability": "view",
      "type": "function"
    }
  ],
  "bytecode": "0x608060405234801561001057600080fd5b5033600460016101000a81548173ffffffffffffffffffffffffffffffffffffffff021916908373ffffffffffffffffffffffffffffffffffffffff1602179055506000600460006101000a81548160ff021916908315150217905550611e878061007c6000396000f3fe608060405234801561001057600080fd5b50600436106101005760003560e01c80633d2f5bda116100975780638da5cb5b116100665780638da5cb5b1461029f5780639a0e7d66146102bd578063a567dd75146102db578063c3403ddf1461030b57610100565b80633d2f5bda14610219578063408e272714610235578063462e91ec146102535780635141e5201461026f57610100565b80631ea736e0116100d35780631ea736e0146101795780632d35a8a2146101975780633477ee2e146101b557806335b8e820146101e757610100565b80630121b93f146101055780630d15fd77146101215780630deb56ab1461013f5780631e620cd41461015d575b600080fd5b61011f600480360381019061011a9190610f90565b610315565b005b610129610562565b6040516101369190610fcc565b60405180910390f35b610147610568565b6040516101549190610fcc565b60405180910390f35b61017760048036038101906101729190610f90565b610572565b005b610181610798565b60405161018e9190610fcc565b60405180910390f35b61019f61079e565b6040516101ac9190610fcc565b60405180910390f35b6101cf60048036038101906101ca9190610f90565b6107a4565b6040516101de93929190611077565b60405180910390f35b61020160048036038101906101fc9190610f90565b610856565b60405161021093929190611077565b60405180910390f35b610233600480360381019061022e9190610f90565b61098d565b005b61023d610aee565b60405161024a91906110d0565b60405180910390f35b61026d60048036038101906102689190611220565b610b01565b005b610289600480360381019061028491906112c7565b610d5c565b6040516102969190610fcc565b60405180910390f35b6102a7610da5565b6040516102b49190611303565b60405180910390f35b6102c5610dcb565b6040516102d29190610fcc565b60405180910390f35b6102f560048036038101906102f091906112c7565b610dd5565b6040516103029190610fcc565b60405180910390f35b610313610ded565b005b600460009054906101000a900460ff16610364576040517f08c379a000000000000000000000000000000000000000000000000000000000815260040161035b9061136a565b60405180910390fd5b8060008111801561037757506003548111155b8015610399575060008060008381526020019081526020016000206000015414155b6103d8576040517f08c379a00000000000000000000000000000000000000000000000000000000081526004016103cf906113d6565b60405180910390fd5b6000600160003373ffffffffffffffffffffffffffffffffffffffff1673ffffffffffffffffffffffffffffffffffffffff168152602001908152602001600020541461045a576040517f08c379a000000000000000000000000000000000000000000000000000000000815260040161045190611442565b60405180910390fd5b600554421061049e576040517f08c379a0000000000000000000000000000000000000000000000000000000008152600401610495906114ae565b60405180910390fd5b81600160003373ffffffffffffffffffffffffffffffffffffffff1673ffffffffffffffffffffffffffffffffffffffff168152602001908152602001600020819055506000808381526020019081526020016000206002016000815480929190610508906114fd565b919050555060026000815480929190610520906114fd565b91905055507fa36cc2bebb74db33e9f88110a07ef56e1b31b24b4c4f51b54b1664266e29f45b3383604051610556929190611545565b60405180910390a15050565b60025481565b6000600354905090565b600460019054906101000a900473ffffffffffffffffffffffffffffffffffffffff1673ffffffffffffffffffffffffffffffffffffffff163373ffffffffffffffffffffffffffffffffffffffff1614610602576040517f08c379a00000000000000000000000000000000000000000000000000000000081526004016105f9906115e0565b60405180910390fd5b600460009054906101000a900460ff1615610652576040517f08c379a000000000000000000000000000000000000000000000000000000000815260040161064990611672565b60405180910390fd5b60008111801561066457506003548111155b6106a3576040517f08c379a000000000000000000000000000000000000000000000000000000000815260040161069a906116de565b60405180910390fd5b600080600083815260200190815260200160002060000154036106fb576040517f08c379a00000000000000000000000000000000000000000000000000000000081526004016106f29061174a565b60405180910390fd5b6000808281526020019081526020016000206002015460026000828254610722919061176a565b925050819055506000808281526020019081526020016000206000808201600090556001820160006107549190610ee9565b600282016000905550507f5768df5843e58ec5b2fc92eb6ef81241e9ec50a0b93fd074dec58b39efc417208160405161078d9190610fcc565b60405180910390a150565b60055481565b60035481565b60006020528060005260406000206000915090508060000154908060010180546107cd906117cd565b80601f01602080910402602001604051908101604052809291908181526020018280546107f9906117cd565b80156108465780601f1061081b57610100808354040283529160200191610846565b820191906000526020600020905b81548152906001019060200180831161082957829003601f168201915b5050505050908060020154905083565b6000606060008060008086815260200190815260200160002060000154116108b3576040517f08c379a00000000000000000000000000000000000000000000000000000000081526004016108aa906113d6565b60405180910390fd5b6000808581526020019081526020016000206000015460008086815260200190815260200160002060010160008087815260200190815260200160002060020154818054610900906117cd565b80601f016020809104026020016040519081016040528092919081815260200182805461092c906117cd565b80156109795780601f1061094e57610100808354040283529160200191610979565b820191906000526020600020905b81548152906001019060200180831161095c57829003601f168201915b505050505091509250925092509193909250565b600460019054906101000a900473ffffffffffffffffffffffffffffffffffffffff1673ffffffffffffffffffffffffffffffffffffffff163373ffffffffffffffffffffffffffffffffffffffff1614610a1d576040517f08c379a0000000000000000000000000000000000000000000000000000000008152600401610a14906115e0565b60405180910390fd5b600060035411610a62576040517f08c379a0000000000000000000000000000000000000000000000000000000008152600401610a599061184a565b60405180910390fd5b600460009054906101000a900460ff1615610ab2576040517f08c379a0000000000000000000000000000000000000000000000000000000008152600401610aa9906118b6565b60405180910390fd5b6001600460006101000a81548160ff021916908315150217905550603c81610ada91906118d6565b42610ae59190611918565b60058190555050565b600460009054906101000a900460ff1681565b600460019054906101000a900473ffffffffffffffffffffffffffffffffffffffff1673ffffffffffffffffffffffffffffffffffffffff163373ffffffffffffffffffffffffffffffffffffffff1614610b91576040517f08c379a0000000000000000000000000000000000000000000000000000000008152600401610b88906115e0565b60405180910390fd5b600460009054906101000a900460ff1615610be1576040517f08c379a0000000000000000000000000000000000000000000000000000000008152600401610bd8906119be565b60405180910390fd5b6000600190505b6003548111610ca65781604051602001610c029190611a1a565b60405160208183030381529060405280519060200120600080838152602001908152602001600020600101604051602001610c3d9190611ac9565b6040516020818303038152906040528051906020012003610c93576040517f08c379a0000000000000000000000000000000000000000000000000000000008152600401610c8a90611b2c565b60405180910390fd5b8080610c9e906114fd565b915050610be8565b5060036000815480929190610cba906114fd565b91905055506040518060600160405280600354815260200182815260200160008152506000806003548152602001908152602001600020600082015181600001556020820151816001019081610d109190611ce3565b50604082015181600201559050507fe83b2a43e7e82d975c8a0a6d2f045153c869e111136a34d1889ab7b598e396a360035482604051610d51929190611db5565b60405180910390a150565b6000600160008373ffffffffffffffffffffffffffffffffffffffff1673ffffffffffffffffffffffffffffffffffffffff168152602001908152602001600020549050919050565b600460019054906101000a900473ffffffffffffffffffffffffffffffffffffffff1681565b6000600254905090565b60016020528060005260406000206000915090505481565b600460019054906101000a900473ffffffffffffffffffffffffffffffffffffffff1673ffffffffffffffffffffffffffffffffffffffff163373ffffffffffffffffffffffffffffffffffffffff1614610e7d576040517f08c379a0000000000000000000000000000000000000000000000000000000008152600401610e74906115e0565b60405180910390fd5b600460009054906101000a900460ff16610ecc576040517f08c379a0000000000000000000000000000000000000000000000000000000008152600401610ec390611e31565b60405180910390fd5b6000600460006101000a81548160ff021916908315150217905550565b508054610ef5906117cd565b6000825580601f10610f075750610f26565b601f016020900490600052602060002090810190610f259190610f29565b5b50565b5b80821115610f42576000816000905550600101610f2a565b5090565b6000604051905090565b600080fd5b600080fd5b6000819050919050565b610f6d81610f5a565b8114610f7857600080fd5b50565b600081359050610f8a81610f64565b92915050565b600060208284031215610fa657610fa5610f50565b5b6000610fb484828501610f7b565b91505092915050565b610fc681610f5a565b82525050565b6000602082019050610fe16000830184610fbd565b92915050565b600081519050919050565b600082825260208201905092915050565b60005b83811015611021578082015181840152602081019050611006565b60008484015250505050565b6000601f19601f8301169050919050565b600061104982610fe7565b6110538185610ff2565b9350611063818560208601611003565b61106c8161102d565b840191505092915050565b600060608201905061108c6000830186610fbd565b818103602083015261109e818561103e565b90506110ad6040830184610fbd565b949350505050565b60008115159050919050565b6110ca816110b5565b82525050565b60006020820190506110e560008301846110c1565b92915050565b600080fd5b600080fd5b7f4e487b7100000000000000000000000000000000000000000000000000000000600052604160045260246000fd5b61112d8261102d565b810181811067ffffffffffffffff8211171561114c5761114b6110f5565b5b80604052505050565b600061115f610f46565b905061116b8282611124565b919050565b600067ffffffffffffffff82111561118b5761118a6110f5565b5b6111948261102d565b9050602081019050919050565b82818337600083830152505050565b60006111c36111be84611170565b611155565b9050828152602081018484840111156111df576111de6110f0565b5b6111ea8482856111a1565b509392505050565b600082601f830112611207576112066110eb565b5b81356112178482602086016111b0565b91505092915050565b60006020828403121561123657611235610f50565b5b600082013567ffffffffffffffff81111561125457611253610f55565b5b611260848285016111f2565b91505092915050565b600073ffffffffffffffffffffffffffffffffffffffff82169050919050565b600061129482611269565b9050919050565b6112a481611289565b81146112af57600080fd5b50565b6000813590506112c18161129b565b92915050565b6000602082840312156112dd576112dc610f50565b5b60006112eb848285016112b2565b91505092915050565b6112fd81611289565b82525050565b600060208201905061131860008301846112f4565b92915050565b7f566f74696e67206973206e6f7420616374697665000000000000000000000000600082015250565b6000611354601483610ff2565b915061135f8261131e565b602082019050919050565b6000602082019050818103600083015261138381611347565b9050919050565b7f43616e64696461746520646f6573206e6f742065786973740000000000000000600082015250565b60006113c0601883610ff2565b91506113cb8261138a565b602082019050919050565b600060208201905081810360008301526113ef816113b3565b9050919050565b7f566f7465722068617320616c726561647920766f746564000000000000000000600082015250565b600061142c601783610ff2565b9150611437826113f6565b602082019050919050565b6000602082019050818103600083015261145b8161141f565b9050919050565b7f566f74696e6720706572696f642068617320656e646564000000000000000000600082015250565b6000611498601783610ff2565b91506114a382611462565b602082019050919050565b600060208201905081810360008301526114c78161148b565b9050919050565b7f4e487b7100000000000000000000000000000000000000000000000000000000600052601160045260246000fd5b600061150882610f5a565b91507fffffffffffffffffffffffffffffffffffffffffffffffffffffffffffffffff820361153a576115396114ce565b5b600182019050919050565b600060408201905061155a60008301856112f4565b6115676020830184610fbd565b9392505050565b7f4f6e6c7920746865206f776e65722063616e2063616c6c20746869732066756e60008201527f6374696f6e000000000000000000000000000000000000000000000000000000602082015250565b60006115ca602583610ff2565b91506115d58261156e565b604082019050919050565b600060208201905081810360008301526115f9816115bd565b9050919050565b7f43616e6e6f742064656c6574652063616e6469646174657320647572696e672060008201527f61637469766520766f74696e6700000000000000000000000000000000000000602082015250565b600061165c602d83610ff2565b915061166782611600565b604082019050919050565b6000602082019050818103600083015261168b8161164f565b9050919050565b7f496e76616c69642063616e646964617465204944000000000000000000000000600082015250565b60006116c8601483610ff2565b91506116d382611692565b602082019050919050565b600060208201905081810360008301526116f7816116bb565b9050919050565b7f43616e64696461746520616c72656164792064656c6574656400000000000000600082015250565b6000611734601983610ff2565b915061173f826116fe565b602082019050919050565b6000602082019050818103600083015261176381611727565b9050919050565b600061177582610f5a565b915061178083610f5a565b9250828203905081811115611798576117976114ce565b5b92915050565b7f4e487b7100000000000000000000000000000000000000000000000000000000600052602260045260246000fd5b600060028204905060018216806117e557607f821691505b6020821081036117f8576117f761179e565b5b50919050565b7f4e6f2063616e6469646174657320616464656400000000000000000000000000600082015250565b6000611834601383610ff2565b915061183f826117fe565b602082019050919050565b6000602082019050818103600083015261186381611827565b9050919050565b7f566f74696e6720697320616c7265616479206163746976650000000000000000600082015250565b60006118a0601883610ff2565b91506118ab8261186a565b602082019050919050565b600060208201905081810360008301526118cf81611893565b9050919050565b60006118e182610f5a565b91506118ec83610f5a565b92508282026118fa81610f5a565b91508282048414831517611911576119106114ce565b5b5092915050565b600061192382610f5a565b915061192e83610f5a565b9250828201905080821115611946576119456114ce565b5b92915050565b7f43616e6e6f74206164642063616e6469646174657320647572696e672061637460008201527f69766520766f74696e6700000000000000000000000000000000000000000000602082015250565b60006119a8602a83610ff2565b91506119b38261194c565b604082019050919050565b600060208201905081810360008301526119d78161199b565b9050919050565b600081905092915050565b60006119f482610fe7565b6119fe81856119de565b9350611a0e818560208601611003565b80840191505092915050565b6000611a2682846119e9565b915081905092915050565b60008190508160005260206000209050919050565b60008154611a53816117cd565b611a5d81866119de565b94506001821660008114611a785760018114611a8d57611ac0565b60ff1983168652811515820286019350611ac0565b611a9685611a31565b60005b83811015611ab857815481890152600182019150602081019050611a99565b838801955050505b50505092915050565b6000611ad58284611a46565b915081905092915050565b7f43616e64696461746520616c7265616479206578697374730000000000000000600082015250565b6000611b16601883610ff2565b9150611b2182611ae0565b602082019050919050565b60006020820190508181036000830152611b4581611b09565b9050919050565b60006020601f8301049050919050565b600082821b905092915050565b600060088302611b997fffffffffffffffffffffffffffffffffffffffffffffffffffffffffffffffff82611b5c565b611ba38683611b5c565b95508019841693508086168417925050509392505050565b6000819050919050565b6000611be0611bdb611bd684610f5a565b611bbb565b610f5a565b9050919050565b6000819050919050565b611bfa83611bc5565b611c0e611c0682611be7565b848454611b69565b825550505050565b600090565b611c23611c16565b611c2e818484611bf1565b505050565b5b81811015611c5257611c47600082611c1b565b600181019050611c34565b5050565b601f821115611c9757611c6881611a31565b611c7184611b4c565b81016020851015611c80578190505b611c94611c8c85611b4c565b830182611c33565b50505b505050565b600082821c905092915050565b6000611cba60001984600802611c9c565b1980831691505092915050565b6000611cd38383611ca9565b9150826002028217905092915050565b611cec82610fe7565b67ffffffffffffffff811115611d0557611d046110f5565b5b611d0f82546117cd565b611d1a828285611c56565b600060209050601f831160018114611d4d5760008415611d3b578287015190505b611d458582611cc7565b865550611dad565b601f198416611d5b86611a31565b60005b82811015611d8357848901518255600182019150602085019450602081019050611d5e565b86831015611da05784890151611d9c601f891682611ca9565b8355505b6001600288020188555050505b505050505050565b6000604082019050611dca6000830185610fbd565b8181036020830152611ddc818461103e565b90509392505050565b7f566f74696e6720697320616c726561647920696e616374697665000000000000600082015250565b6000611e1b601a83610ff2565b9150611e2682611de5565b602082019050919050565b60006020820190508181036000830152611e4a81611e0e565b905091905056fea26469706673582212206ecff14512dabd41e959c1862029a0dfac84bf485e1feb0701e098d1c4ac1fef64736f6c63430008110033",
  "linkReferences": {},
  "deployedLinkReferences": {}
}