{
  "_format": "hh-sol-artifact-1",
  "contractName": "Voting",
  "sourceName": "contracts/Voting.sol",
  "abi": [
    {
      "inputs": [],
      "stateMutability": "nonpayable",
      "type": "constructor"
    },
    {
      "anonymous": false,
      "inputs": [
        {
          "indexed": false,
          "internalType": "address",
          "name": "admin",
          "type": "address"
        }
      ],
      "name": "AdminAdded",
      "type": "event"
    },
    {
      "anonymous": false,
      "inputs": [
        {
          "indexed": false,
          "internalType": "address",
          "name": "admin",
          "type": "address"
        }
      ],
      "name": "AdminRemoved",
      "type": "event"
    },
    {
      "anonymous": false,
      "inputs": [
        {
          "indexed": false,
          "internalType": "uint256",
          "name": "candidateId",
          "type": "uint256"
        },
        {
          "indexed": false,
          "internalType": "string",
          "name": "name",
          "type": "string"
        }
      ],
      "name": "CandidateAdded",
      "type": "event"
    },
    {
      "anonymous": false,
      "inputs": [
        {
          "indexed": false,
          "internalType": "uint256",
          "name": "candidateId",
          "type": "uint256"
        }
      ],
      "name": "CandidateDeleted",
      "type": "event"
    },
    {
      "anonymous": false,
      "inputs": [
        {
          "indexed": false,
          "internalType": "address",
          "name": "voter",
          "type": "address"
        },
        {
          "indexed": false,
          "internalType": "uint256",
          "name": "candidateId",
          "type": "uint256"
        }
      ],
      "name": "VoteCast",
      "type": "event"
    },
    {
      "anonymous": false,
      "inputs": [],
      "name": "VotingEnded",
      "type": "event"
    },
    {
      "anonymous": false,
      "inputs": [
        {
          "indexed": false,
          "internalType": "uint256",
          "name": "durationInMinutes",
          "type": "uint256"
        },
        {
          "indexed": false,
          "internalType": "uint256",
          "name": "endTime",
          "type": "uint256"
        }
      ],
      "name": "VotingStarted",
      "type": "event"
    },
    {
      "inputs": [
        {
          "internalType": "address",
          "name": "_admin",
          "type": "address"
        }
      ],
      "name": "addAdmin",
      "outputs": [],
      "stateMutability": "nonpayable",
      "type": "function"
    },
    {
      "inputs": [
        {
          "internalType": "string",
          "name": "_name",
          "type": "string"
        }
      ],
      "name": "addCandidate",
      "outputs": [],
      "stateMutability": "nonpayable",
      "type": "function"
    },
    {
      "inputs": [
        {
          "internalType": "address",
          "name": "",
          "type": "address"
        }
      ],
      "name": "admins",
      "outputs": [
        {
          "internalType": "bool",
          "name": "",
          "type": "bool"
        }
      ],
      "stateMutability": "view",
      "type": "function"
    },
    {
      "inputs": [
        {
          "internalType": "uint256",
          "name": "",
          "type": "uint256"
        }
      ],
      "name": "candidates",
      "outputs": [
        {
          "internalType": "uint256",
          "name": "id",
          "type": "uint256"
        },
        {
          "internalType": "string",
          "name": "name",
          "type": "string"
        },
        {
          "internalType": "uint256",
          "name": "voteCount",
          "type": "uint256"
        }
      ],
      "stateMutability": "view",
      "type": "function"
    },
    {
      "inputs": [],
      "name": "candidatesCount",
      "outputs": [
        {
          "internalType": "uint256",
          "name": "",
          "type": "uint256"
        }
      ],
      "stateMutability": "view",
      "type": "function"
    },
    {
      "inputs": [
        {
          "internalType": "uint256",
          "name": "_candidateId",
          "type": "uint256"
        }
      ],
      "name": "deleteCandidate",
      "outputs": [],
      "stateMutability": "nonpayable",
      "type": "function"
    },
    {
      "inputs": [],
      "name": "endVoting",
      "outputs": [],
      "stateMutability": "nonpayable",
      "type": "function"
    },
    {
      "inputs": [
        {
          "internalType": "uint256",
          "name": "_candidateId",
          "type": "uint256"
        }
      ],
      "name": "getCandidate",
      "outputs": [
        {
          "components": [
            {
              "internalType": "uint256",
              "name": "id",
              "type": "uint256"
            },
            {
              "internalType": "string",
              "name": "name",
              "type": "string"
            },
            {
              "internalType": "uint256",
              "name": "voteCount",
              "type": "uint256"
            }
          ],
          "internalType": "struct Voting.Candidate",
          "name": "",
          "type": "tuple"
        }
      ],
      "stateMutability": "view",
      "type": "function"
    },
    {
      "inputs": [],
      "name": "getTotalCandidates",
      "outputs": [
        {
          "internalType": "uint256",
          "name": "",
          "type": "uint256"
        }
      ],
      "stateMutability": "view",
      "type": "function"
    },
    {
      "inputs": [],
      "name": "getTotalVotes",
      "outputs": [
        {
          "internalType": "uint256",
          "name": "",
          "type": "uint256"
        }
      ],
      "stateMutability": "view",
      "type": "function"
    },
    {
      "inputs": [
        {
          "internalType": "address",
          "name": "_voter",
          "type": "address"
        }
      ],
      "name": "getVoterVote",
      "outputs": [
        {
          "internalType": "uint256",
          "name": "",
          "type": "uint256"
        }
      ],
      "stateMutability": "view",
      "type": "function"
    },
    {
      "inputs": [
        {
          "internalType": "address",
          "name": "_address",
          "type": "address"
        }
      ],
      "name": "isAdmin",
      "outputs": [
        {
          "internalType": "bool",
          "name": "",
          "type": "bool"
        }
      ],
      "stateMutability": "view",
      "type": "function"
    },
    {
      "inputs": [],
      "name": "owner",
      "outputs": [
        {
          "internalType": "address",
          "name": "",
          "type": "address"
        }
      ],
      "stateMutability": "view",
      "type": "function"
    },
    {
      "inputs": [
        {
          "internalType": "address",
          "name": "_admin",
          "type": "address"
        }
      ],
      "name": "removeAdmin",
      "outputs": [],
      "stateMutability": "nonpayable",
      "type": "function"
    },
    {
      "inputs": [
        {
          "internalType": "uint256",
          "name": "durationInMinutes",
          "type": "uint256"
        }
      ],
      "name": "startVoting",
      "outputs": [],
      "stateMutability": "nonpayable",
      "type": "function"
    },
    {
      "inputs": [],
      "name": "totalVotes",
      "outputs": [
        {
          "internalType": "uint256",
          "name": "",
          "type": "uint256"
        }
      ],
      "stateMutability": "view",
      "type": "function"
    },
    {
      "inputs": [
        {
          "internalType": "uint256",
          "name": "_candidateId",
          "type": "uint256"
        }
      ],
      "name": "vote",
      "outputs": [],
      "stateMutability": "nonpayable",
      "type": "function"
    },
    {
      "inputs": [
        {
          "internalType": "address",
          "name": "",
          "type": "address"
        }
      ],
      "name": "voterToCandidate",
      "outputs": [
        {
          "internalType": "uint256",
          "name": "",
          "type": "uint256"
        }
      ],
      "stateMutability": "view",
      "type": "function"
    },
    {
      "inputs": [],
      "name": "votingActive",
      "outputs": [
        {
          "internalType": "bool",
          "name": "",
          "type": "bool"
        }
      ],
      "stateMutability": "view",
      "type": "function"
    },
    {
      "inputs": [],
      "name": "votingEndTime",
      "outputs": [
        {
          "internalType": "uint256",
          "name": "",
          "type": "uint256"
        }
      ],
      "stateMutability": "view",
      "type": "function"
    }
  ],
  "bytecode": "0x608060405234801561001057600080fd5b5033600560016101000a81548173ffffffffffffffffffffffffffffffffffffffff021916908373ffffffffffffffffffffffffffffffffffffffff1602179055506001600260003373ffffffffffffffffffffffffffffffffffffffff1673ffffffffffffffffffffffffffffffffffffffff16815260200190815260200160002060006101000a81548160ff0219169083151502179055506000600560006101000a81548160ff0219169083151502179055506128fc806100d46000396000f3fe608060405234801561001057600080fd5b506004361061012c5760003560e01c80633d2f5bda116100ad578063704802751161007157806370480275146103455780638da5cb5b146103615780639a0e7d661461037f578063a567dd751461039d578063c3403ddf146103cd5761012c565b80633d2f5bda1461028f578063408e2727146102ab578063429b62e5146102c9578063462e91ec146102f95780635141e520146103155761012c565b80631ea736e0116100f45780631ea736e0146101c157806324d7806c146101df5780632d35a8a21461020f5780633477ee2e1461022d57806335b8e8201461025f5761012c565b80630121b93f146101315780630d15fd771461014d5780630deb56ab1461016b5780631785f53c146101895780631e620cd4146101a5575b600080fd5b61014b600480360381019061014691906116cf565b6103d7565b005b610155610624565b604051610162919061170b565b60405180910390f35b61017361062a565b604051610180919061170b565b60405180910390f35b6101a3600480360381019061019e9190611784565b610634565b005b6101bf60048036038101906101ba91906116cf565b6107e2565b005b6101c9610a5c565b6040516101d6919061170b565b60405180910390f35b6101f960048036038101906101f49190611784565b610a62565b60405161020691906117cc565b60405180910390f35b610217610b10565b604051610224919061170b565b60405180910390f35b610247600480360381019061024291906116cf565b610b16565b60405161025693929190611877565b60405180910390f35b610279600480360381019061027491906116cf565b610bc8565b604051610286919061195e565b60405180910390f35b6102a960048036038101906102a491906116cf565b610cf2565b005b6102b3610f25565b6040516102c091906117cc565b60405180910390f35b6102e360048036038101906102de9190611784565b610f38565b6040516102f091906117cc565b60405180910390f35b610313600480360381019061030e9190611ab5565b610f58565b005b61032f600480360381019061032a9190611784565b61124b565b60405161033c919061170b565b60405180910390f35b61035f600480360381019061035a9190611784565b611294565b005b610369611443565b6040516103769190611b0d565b60405180910390f35b610387611469565b604051610394919061170b565b60405180910390f35b6103b760048036038101906103b29190611784565b611473565b6040516103c4919061170b565b60405180910390f35b6103d561148b565b005b600560009054906101000a900460ff16610426576040517f08c379a000000000000000000000000000000000000000000000000000000000815260040161041d90611b74565b60405180910390fd5b8060008111801561043957506004548111155b801561045b575060008060008381526020019081526020016000206000015414155b61049a576040517f08c379a000000000000000000000000000000000000000000000000000000000815260040161049190611be0565b60405180910390fd5b6000600160003373ffffffffffffffffffffffffffffffffffffffff1673ffffffffffffffffffffffffffffffffffffffff168152602001908152602001600020541461051c576040517f08c379a000000000000000000000000000000000000000000000000000000000815260040161051390611c4c565b60405180910390fd5b6006544210610560576040517f08c379a000000000000000000000000000000000000000000000000000000000815260040161055790611cb8565b60405180910390fd5b81600160003373ffffffffffffffffffffffffffffffffffffffff1673ffffffffffffffffffffffffffffffffffffffff1681526020019081526020016000208190555060008083815260200190815260200160002060020160008154809291906105ca90611d07565b9190505550600360008154809291906105e290611d07565b91905055507fa36cc2bebb74db33e9f88110a07ef56e1b31b24b4c4f51b54b1664266e29f45b3383604051610618929190611d4f565b60405180910390a15050565b60035481565b6000600454905090565b600560019054906101000a900473ffffffffffffffffffffffffffffffffffffffff1673ffffffffffffffffffffffffffffffffffffffff163373ffffffffffffffffffffffffffffffffffffffff16146106c4576040517f08c379a00000000000000000000000000000000000000000000000000000000081526004016106bb90611dea565b60405180910390fd5b600260008273ffffffffffffffffffffffffffffffffffffffff1673ffffffffffffffffffffffffffffffffffffffff16815260200190815260200160002060009054906101000a900460ff16610750576040517f08c379a000000000000000000000000000000000000000000000000000000000815260040161074790611e56565b60405180910390fd5b6000600260008373ffffffffffffffffffffffffffffffffffffffff1673ffffffffffffffffffffffffffffffffffffffff16815260200190815260200160002060006101000a81548160ff0219169083151502179055507fa3b62bc36326052d97ea62d63c3d60308ed4c3ea8ac079dd8499f1e9c4f80c0f816040516107d79190611b0d565b60405180910390a150565b600260003373ffffffffffffffffffffffffffffffffffffffff1673ffffffffffffffffffffffffffffffffffffffff16815260200190815260200160002060009054906101000a900460ff16806108875750600560019054906101000a900473ffffffffffffffffffffffffffffffffffffffff1673ffffffffffffffffffffffffffffffffffffffff163373ffffffffffffffffffffffffffffffffffffffff16145b6108c6576040517f08c379a00000000000000000000000000000000000000000000000000000000081526004016108bd90611ee8565b60405180910390fd5b600560009054906101000a900460ff1615610916576040517f08c379a000000000000000000000000000000000000000000000000000000000815260040161090d90611f7a565b60405180910390fd5b60008111801561092857506004548111155b610967576040517f08c379a000000000000000000000000000000000000000000000000000000000815260040161095e90611fe6565b60405180910390fd5b600080600083815260200190815260200160002060000154036109bf576040517f08c379a00000000000000000000000000000000000000000000000000000000081526004016109b690612052565b60405180910390fd5b60008082815260200190815260200160002060020154600360008282546109e69190612072565b92505081905550600080828152602001908152602001600020600080820160009055600182016000610a189190611607565b600282016000905550507f5768df5843e58ec5b2fc92eb6ef81241e9ec50a0b93fd074dec58b39efc4172081604051610a51919061170b565b60405180910390a150565b60065481565b6000600260008373ffffffffffffffffffffffffffffffffffffffff1673ffffffffffffffffffffffffffffffffffffffff16815260200190815260200160002060009054906101000a900460ff1680610b095750600560019054906101000a900473ffffffffffffffffffffffffffffffffffffffff1673ffffffffffffffffffffffffffffffffffffffff168273ffffffffffffffffffffffffffffffffffffffff16145b9050919050565b60045481565b6000602052806000526040600020600091509050806000015490806001018054610b3f906120d5565b80601f0160208091040260200160405190810160405280929190818152602001828054610b6b906120d5565b8015610bb85780601f10610b8d57610100808354040283529160200191610bb8565b820191906000526020600020905b815481529060010190602001808311610b9b57829003601f168201915b5050505050908060020154905083565b610bd0611647565b60008060008481526020019081526020016000206000015411610c28576040517f08c379a0000000000000000000000000000000000000000000000000000000008152600401610c1f90611be0565b60405180910390fd5b60008083815260200190815260200160002060405180606001604052908160008201548152602001600182018054610c5f906120d5565b80601f0160208091040260200160405190810160405280929190818152602001828054610c8b906120d5565b8015610cd85780601f10610cad57610100808354040283529160200191610cd8565b820191906000526020600020905b815481529060010190602001808311610cbb57829003601f168201915b505050505081526020016002820154815250509050919050565b600260003373ffffffffffffffffffffffffffffffffffffffff1673ffffffffffffffffffffffffffffffffffffffff16815260200190815260200160002060009054906101000a900460ff1680610d975750600560019054906101000a900473ffffffffffffffffffffffffffffffffffffffff1673ffffffffffffffffffffffffffffffffffffffff163373ffffffffffffffffffffffffffffffffffffffff16145b610dd6576040517f08c379a0000000000000000000000000000000000000000000000000000000008152600401610dcd90611ee8565b60405180910390fd5b600060045411610e1b576040517f08c379a0000000000000000000000000000000000000000000000000000000008152600401610e1290612152565b60405180910390fd5b60008111610e5e576040517f08c379a0000000000000000000000000000000000000000000000000000000008152600401610e55906121be565b60405180910390fd5b600560009054906101000a900460ff1615610eae576040517f08c379a0000000000000000000000000000000000000000000000000000000008152600401610ea59061222a565b60405180910390fd5b6001600560006101000a81548160ff021916908315150217905550603c81610ed6919061224a565b42610ee1919061228c565b6006819055507ff8c022056754dbacca05aff710dc315a2fa7699ae9309fda403cd1e55c11d40f81600654604051610f1a9291906122c0565b60405180910390a150565b600560009054906101000a900460ff1681565b60026020528060005260406000206000915054906101000a900460ff1681565b600260003373ffffffffffffffffffffffffffffffffffffffff1673ffffffffffffffffffffffffffffffffffffffff16815260200190815260200160002060009054906101000a900460ff1680610ffd5750600560019054906101000a900473ffffffffffffffffffffffffffffffffffffffff1673ffffffffffffffffffffffffffffffffffffffff163373ffffffffffffffffffffffffffffffffffffffff16145b61103c576040517f08c379a000000000000000000000000000000000000000000000000000000000815260040161103390611ee8565b60405180910390fd5b600560009054906101000a900460ff161561108c576040517f08c379a00000000000000000000000000000000000000000000000000000000081526004016110839061235b565b60405180910390fd5b60008151116110d0576040517f08c379a00000000000000000000000000000000000000000000000000000000081526004016110c7906123c7565b60405180910390fd5b6000600190505b600454811161119557816040516020016110f19190612423565b6040516020818303038152906040528051906020012060008083815260200190815260200160002060010160405160200161112c91906124d2565b6040516020818303038152906040528051906020012003611182576040517f08c379a000000000000000000000000000000000000000000000000000000000815260040161117990612535565b60405180910390fd5b808061118d90611d07565b9150506110d7565b50600460008154809291906111a990611d07565b919050555060405180606001604052806004548152602001828152602001600081525060008060045481526020019081526020016000206000820151816000015560208201518160010190816111ff91906126ec565b50604082015181600201559050507fe83b2a43e7e82d975c8a0a6d2f045153c869e111136a34d1889ab7b598e396a3600454826040516112409291906127be565b60405180910390a150565b6000600160008373ffffffffffffffffffffffffffffffffffffffff1673ffffffffffffffffffffffffffffffffffffffff168152602001908152602001600020549050919050565b600560019054906101000a900473ffffffffffffffffffffffffffffffffffffffff1673ffffffffffffffffffffffffffffffffffffffff163373ffffffffffffffffffffffffffffffffffffffff1614611324576040517f08c379a000000000000000000000000000000000000000000000000000000000815260040161131b90611dea565b60405180910390fd5b600260008273ffffffffffffffffffffffffffffffffffffffff1673ffffffffffffffffffffffffffffffffffffffff16815260200190815260200160002060009054906101000a900460ff16156113b1576040517f08c379a00000000000000000000000000000000000000000000000000000000081526004016113a89061283a565b60405180910390fd5b6001600260008373ffffffffffffffffffffffffffffffffffffffff1673ffffffffffffffffffffffffffffffffffffffff16815260200190815260200160002060006101000a81548160ff0219169083151502179055507f44d6d25963f097ad14f29f06854a01f575648a1ef82f30e562ccd3889717e339816040516114389190611b0d565b60405180910390a150565b600560019054906101000a900473ffffffffffffffffffffffffffffffffffffffff1681565b6000600354905090565b60016020528060005260406000206000915090505481565b600260003373ffffffffffffffffffffffffffffffffffffffff1673ffffffffffffffffffffffffffffffffffffffff16815260200190815260200160002060009054906101000a900460ff16806115305750600560019054906101000a900473ffffffffffffffffffffffffffffffffffffffff1673ffffffffffffffffffffffffffffffffffffffff163373ffffffffffffffffffffffffffffffffffffffff16145b61156f576040517f08c379a000000000000000000000000000000000000000000000000000000000815260040161156690611ee8565b60405180910390fd5b600560009054906101000a900460ff166115be576040517f08c379a00000000000000000000000000000000000000000000000000000000081526004016115b5906128a6565b60405180910390fd5b6000600560006101000a81548160ff0219169083151502179055507f7a19ed057db79e3c2fa0b97a54b43bef4fce74b31bb6c01af514b9a18a7f70ab60405160405180910390a1565b508054611613906120d5565b6000825580601f106116255750611644565b601f0160209004906000526020600020908101906116439190611668565b5b50565b60405180606001604052806000815260200160608152602001600081525090565b5b80821115611681576000816000905550600101611669565b5090565b6000604051905090565b600080fd5b600080fd5b6000819050919050565b6116ac81611699565b81146116b757600080fd5b50565b6000813590506116c9816116a3565b92915050565b6000602082840312156116e5576116e461168f565b5b60006116f3848285016116ba565b91505092915050565b61170581611699565b82525050565b600060208201905061172060008301846116fc565b92915050565b600073ffffffffffffffffffffffffffffffffffffffff82169050919050565b600061175182611726565b9050919050565b61176181611746565b811461176c57600080fd5b50565b60008135905061177e81611758565b92915050565b60006020828403121561179a5761179961168f565b5b60006117a88482850161176f565b91505092915050565b60008115159050919050565b6117c6816117b1565b82525050565b60006020820190506117e160008301846117bd565b92915050565b600081519050919050565b600082825260208201905092915050565b60005b83811015611821578082015181840152602081019050611806565b60008484015250505050565b6000601f19601f8301169050919050565b6000611849826117e7565b61185381856117f2565b9350611863818560208601611803565b61186c8161182d565b840191505092915050565b600060608201905061188c60008301866116fc565b818103602083015261189e818561183e565b90506118ad60408301846116fc565b949350505050565b6118be81611699565b82525050565b600082825260208201905092915050565b60006118e0826117e7565b6118ea81856118c4565b93506118fa818560208601611803565b6119038161182d565b840191505092915050565b600060608301600083015161192660008601826118b5565b506020830151848203602086015261193e82826118d5565b915050604083015161195360408601826118b5565b508091505092915050565b60006020820190508181036000830152611978818461190e565b905092915050565b600080fd5b600080fd5b7f4e487b7100000000000000000000000000000000000000000000000000000000600052604160045260246000fd5b6119c28261182d565b810181811067ffffffffffffffff821117156119e1576119e061198a565b5b80604052505050565b60006119f4611685565b9050611a0082826119b9565b919050565b600067ffffffffffffffff821115611a2057611a1f61198a565b5b611a298261182d565b9050602081019050919050565b82818337600083830152505050565b6000611a58611a5384611a05565b6119ea565b905082815260208101848484011115611a7457611a73611985565b5b611a7f848285611a36565b509392505050565b600082601f830112611a9c57611a9b611980565b5b8135611aac848260208601611a45565b91505092915050565b600060208284031215611acb57611aca61168f565b5b600082013567ffffffffffffffff811115611ae957611ae8611694565b5b611af584828501611a87565b91505092915050565b611b0781611746565b82525050565b6000602082019050611b226000830184611afe565b92915050565b7f566f74696e67206973206e6f7420616374697665000000000000000000000000600082015250565b6000611b5e6014836117f2565b9150611b6982611b28565b602082019050919050565b60006020820190508181036000830152611b8d81611b51565b9050919050565b7f43616e64696461746520646f6573206e6f742065786973740000000000000000600082015250565b6000611bca6018836117f2565b9150611bd582611b94565b602082019050919050565b60006020820190508181036000830152611bf981611bbd565b9050919050565b7f566f7465722068617320616c726561647920766f746564000000000000000000600082015250565b6000611c366017836117f2565b9150611c4182611c00565b602082019050919050565b60006020820190508181036000830152611c6581611c29565b9050919050565b7f566f74696e6720706572696f642068617320656e646564000000000000000000600082015250565b6000611ca26017836117f2565b9150611cad82611c6c565b602082019050919050565b60006020820190508181036000830152611cd181611c95565b9050919050565b7f4e487b7100000000000000000000000000000000000000000000000000000000600052601160045260246000fd5b6000611d1282611699565b91507fffffffffffffffffffffffffffffffffffffffffffffffffffffffffffffffff8203611d4457611d43611cd8565b5b600182019050919050565b6000604082019050611d646000830185611afe565b611d7160208301846116fc565b9392505050565b7f4f6e6c7920746865206f776e65722063616e2063616c6c20746869732066756e60008201527f6374696f6e000000000000000000000000000000000000000000000000000000602082015250565b6000611dd46025836117f2565b9150611ddf82611d78565b604082019050919050565b60006020820190508181036000830152611e0381611dc7565b9050919050565b7f41646472657373206973206e6f7420616e2061646d696e000000000000000000600082015250565b6000611e406017836117f2565b9150611e4b82611e0a565b602082019050919050565b60006020820190508181036000830152611e6f81611e33565b9050919050565b7f4f6e6c792061646d696e2063616e2063616c6c20746869732066756e6374696f60008201527f6e00000000000000000000000000000000000000000000000000000000000000602082015250565b6000611ed26021836117f2565b9150611edd82611e76565b604082019050919050565b60006020820190508181036000830152611f0181611ec5565b9050919050565b7f43616e6e6f742064656c6574652063616e6469646174657320647572696e672060008201527f61637469766520766f74696e6700000000000000000000000000000000000000602082015250565b6000611f64602d836117f2565b9150611f6f82611f08565b604082019050919050565b60006020820190508181036000830152611f9381611f57565b9050919050565b7f496e76616c69642063616e646964617465204944000000000000000000000000600082015250565b6000611fd06014836117f2565b9150611fdb82611f9a565b602082019050919050565b60006020820190508181036000830152611fff81611fc3565b9050919050565b7f43616e64696461746520616c72656164792064656c6574656400000000000000600082015250565b600061203c6019836117f2565b915061204782612006565b602082019050919050565b6000602082019050818103600083015261206b8161202f565b9050919050565b600061207d82611699565b915061208883611699565b92508282039050818111156120a05761209f611cd8565b5b92915050565b7f4e487b7100000000000000000000000000000000000000000000000000000000600052602260045260246000fd5b600060028204905060018216806120ed57607f821691505b602082108103612100576120ff6120a6565b5b50919050565b7f4e6f2063616e6469646174657320616464656400000000000000000000000000600082015250565b600061213c6013836117f2565b915061214782612106565b602082019050919050565b6000602082019050818103600083015261216b8161212f565b9050919050565b7f4475726174696f6e206d75737420626520706f73697469766500000000000000600082015250565b60006121a86019836117f2565b91506121b382612172565b602082019050919050565b600060208201905081810360008301526121d78161219b565b9050919050565b7f566f74696e6720697320616c7265616479206163746976650000000000000000600082015250565b60006122146018836117f2565b915061221f826121de565b602082019050919050565b6000602082019050818103600083015261224381612207565b9050919050565b600061225582611699565b915061226083611699565b925082820261226e81611699565b9150828204841483151761228557612284611cd8565b5b5092915050565b600061229782611699565b91506122a283611699565b92508282019050808211156122ba576122b9611cd8565b5b92915050565b60006040820190506122d560008301856116fc565b6122e260208301846116fc565b9392505050565b7f43616e6e6f74206164642063616e6469646174657320647572696e672061637460008201527f69766520766f74696e6700000000000000000000000000000000000000000000602082015250565b6000612345602a836117f2565b9150612350826122e9565b604082019050919050565b6000602082019050818103600083015261237481612338565b9050919050565b7f43616e646964617465206e616d652063616e6e6f7420626520656d7074790000600082015250565b60006123b1601e836117f2565b91506123bc8261237b565b602082019050919050565b600060208201905081810360008301526123e0816123a4565b9050919050565b600081905092915050565b60006123fd826117e7565b61240781856123e7565b9350612417818560208601611803565b80840191505092915050565b600061242f82846123f2565b915081905092915050565b60008190508160005260206000209050919050565b6000815461245c816120d5565b61246681866123e7565b945060018216600081146124815760018114612496576124c9565b60ff19831686528115158202860193506124c9565b61249f8561243a565b60005b838110156124c1578154818901526001820191506020810190506124a2565b838801955050505b50505092915050565b60006124de828461244f565b915081905092915050565b7f43616e64696461746520616c7265616479206578697374730000000000000000600082015250565b600061251f6018836117f2565b915061252a826124e9565b602082019050919050565b6000602082019050818103600083015261254e81612512565b9050919050565b60006020601f8301049050919050565b600082821b905092915050565b6000600883026125a27fffffffffffffffffffffffffffffffffffffffffffffffffffffffffffffffff82612565565b6125ac8683612565565b95508019841693508086168417925050509392505050565b6000819050919050565b60006125e96125e46125df84611699565b6125c4565b611699565b9050919050565b6000819050919050565b612603836125ce565b61261761260f826125f0565b848454612572565b825550505050565b600090565b61262c61261f565b6126378184846125fa565b505050565b5b8181101561265b57612650600082612624565b60018101905061263d565b5050565b601f8211156126a0576126718161243a565b61267a84612555565b81016020851015612689578190505b61269d61269585612555565b83018261263c565b50505b505050565b600082821c905092915050565b60006126c3600019846008026126a5565b1980831691505092915050565b60006126dc83836126b2565b9150826002028217905092915050565b6126f5826117e7565b67ffffffffffffffff81111561270e5761270d61198a565b5b61271882546120d5565b61272382828561265f565b600060209050601f8311600181146127565760008415612744578287015190505b61274e85826126d0565b8655506127b6565b601f1984166127648661243a565b60005b8281101561278c57848901518255600182019150602085019450602081019050612767565b868310156127a957848901516127a5601f8916826126b2565b8355505b6001600288020188555050505b505050505050565b60006040820190506127d360008301856116fc565b81810360208301526127e5818461183e565b90509392505050565b7f4164647265737320697320616c726561647920616e2061646d696e0000000000600082015250565b6000612824601b836117f2565b915061282f826127ee565b602082019050919050565b6000602082019050818103600083015261285381612817565b9050919050565b7f566f74696e6720697320616c726561647920696e616374697665000000000000600082015250565b6000612890601a836117f2565b915061289b8261285a565b602082019050919050565b600060208201905081810360008301526128bf81612883565b905091905056fea26469706673582212200011590ed61ba3adc56fc50bc109ba580d20e1402721192d259374345fca91a764736f6c63430008110033",
  "linkReferences": {},
  "deployedLinkReferences": {}
}