{
  "_format": "hh-sol-artifact-1",
  "contractName": "Voting",
  "sourceName": "contracts/Voting.sol",
  "abi": [
    {
      "inputs": [],
      "stateMutability": "nonpayable",
      "type": "constructor"
    },
    {
      "anonymous": false,
      "inputs": [
        {
          "indexed": false,
          "internalType": "uint256",
          "name": "candidateId",
          "type": "uint256"
        },
        {
          "indexed": false,
          "internalType": "string",
          "name": "name",
          "type": "string"
        }
      ],
      "name": "CandidateAdded",
      "type": "event"
    },
    {
      "anonymous": false,
      "inputs": [
        {
          "indexed": false,
          "internalType": "uint256",
          "name": "candidateId",
          "type": "uint256"
        }
      ],
      "name": "CandidateDeleted",
      "type": "event"
    },
    {
      "anonymous": false,
      "inputs": [
        {
          "indexed": false,
          "internalType": "address",
          "name": "voter",
          "type": "address"
        },
        {
          "indexed": false,
          "internalType": "uint256",
          "name": "candidateId",
          "type": "uint256"
        }
      ],
      "name": "VoteCast",
      "type": "event"
    },
    {
      "anonymous": false,
      "inputs": [
        {
          "indexed": false,
          "internalType": "address",
          "name": "voter",
          "type": "address"
        }
      ],
      "name": "VoterRegistered",
      "type": "event"
    },
    {
      "inputs": [
        {
          "internalType": "string",
          "name": "_name",
          "type": "string"
        }
      ],
      "name": "addCandidate",
      "outputs": [],
      "stateMutability": "nonpayable",
      "type": "function"
    },
    {
      "inputs": [
        {
          "internalType": "uint256",
          "name": "",
          "type": "uint256"
        }
      ],
      "name": "candidates",
      "outputs": [
        {
          "internalType": "uint256",
          "name": "id",
          "type": "uint256"
        },
        {
          "internalType": "string",
          "name": "name",
          "type": "string"
        },
        {
          "internalType": "uint256",
          "name": "voteCount",
          "type": "uint256"
        }
      ],
      "stateMutability": "view",
      "type": "function"
    },
    {
      "inputs": [],
      "name": "candidatesCount",
      "outputs": [
        {
          "internalType": "uint256",
          "name": "",
          "type": "uint256"
        }
      ],
      "stateMutability": "view",
      "type": "function"
    },
    {
      "inputs": [
        {
          "internalType": "uint256",
          "name": "_candidateId",
          "type": "uint256"
        }
      ],
      "name": "deleteCandidate",
      "outputs": [],
      "stateMutability": "nonpayable",
      "type": "function"
    },
    {
      "inputs": [],
      "name": "endVoting",
      "outputs": [],
      "stateMutability": "nonpayable",
      "type": "function"
    },
    {
      "inputs": [
        {
          "internalType": "uint256",
          "name": "_candidateId",
          "type": "uint256"
        }
      ],
      "name": "getCandidate",
      "outputs": [
        {
          "internalType": "uint256",
          "name": "",
          "type": "uint256"
        },
        {
          "internalType": "string",
          "name": "",
          "type": "string"
        },
        {
          "internalType": "uint256",
          "name": "",
          "type": "uint256"
        }
      ],
      "stateMutability": "view",
      "type": "function"
    },
    {
      "inputs": [],
      "name": "getTotalCandidates",
      "outputs": [
        {
          "internalType": "uint256",
          "name": "",
          "type": "uint256"
        }
      ],
      "stateMutability": "view",
      "type": "function"
    },
    {
      "inputs": [],
      "name": "getTotalVotes",
      "outputs": [
        {
          "internalType": "uint256",
          "name": "",
          "type": "uint256"
        }
      ],
      "stateMutability": "view",
      "type": "function"
    },
    {
      "inputs": [
        {
          "internalType": "address",
          "name": "_voter",
          "type": "address"
        }
      ],
      "name": "getVoterVote",
      "outputs": [
        {
          "internalType": "uint256",
          "name": "",
          "type": "uint256"
        }
      ],
      "stateMutability": "view",
      "type": "function"
    },
    {
      "inputs": [],
      "name": "owner",
      "outputs": [
        {
          "internalType": "address",
          "name": "",
          "type": "address"
        }
      ],
      "stateMutability": "view",
      "type": "function"
    },
    {
      "inputs": [
        {
          "internalType": "address",
          "name": "_voter",
          "type": "address"
        }
      ],
      "name": "registerVoter",
      "outputs": [],
      "stateMutability": "nonpayable",
      "type": "function"
    },
    {
      "inputs": [
        {
          "internalType": "address",
          "name": "",
          "type": "address"
        }
      ],
      "name": "registeredVoters",
      "outputs": [
        {
          "internalType": "bool",
          "name": "",
          "type": "bool"
        }
      ],
      "stateMutability": "view",
      "type": "function"
    },
    {
      "inputs": [
        {
          "internalType": "uint256",
          "name": "durationInMinutes",
          "type": "uint256"
        }
      ],
      "name": "startVoting",
      "outputs": [],
      "stateMutability": "nonpayable",
      "type": "function"
    },
    {
      "inputs": [],
      "name": "totalVotes",
      "outputs": [
        {
          "internalType": "uint256",
          "name": "",
          "type": "uint256"
        }
      ],
      "stateMutability": "view",
      "type": "function"
    },
    {
      "inputs": [
        {
          "internalType": "uint256",
          "name": "_candidateId",
          "type": "uint256"
        }
      ],
      "name": "vote",
      "outputs": [],
      "stateMutability": "nonpayable",
      "type": "function"
    },
    {
      "inputs": [
        {
          "internalType": "address",
          "name": "",
          "type": "address"
        }
      ],
      "name": "voterToCandidate",
      "outputs": [
        {
          "internalType": "uint256",
          "name": "",
          "type": "uint256"
        }
      ],
      "stateMutability": "view",
      "type": "function"
    },
    {
      "inputs": [],
      "name": "votingActive",
      "outputs": [
        {
          "internalType": "bool",
          "name": "",
          "type": "bool"
        }
      ],
      "stateMutability": "view",
      "type": "function"
    },
    {
      "inputs": [],
      "name": "votingEndTime",
      "outputs": [
        {
          "internalType": "uint256",
          "name": "",
          "type": "uint256"
        }
      ],
      "stateMutability": "view",
      "type": "function"
    }
  ],
  "bytecode": "0x608060405234801561001057600080fd5b50600060038190555060006004819055506001600560006101000a81548160ff02191690831515021790555033600560016101000a81548173ffffffffffffffffffffffffffffffffffffffff021916908373ffffffffffffffffffffffffffffffffffffffff160217905550611e938061008c6000396000f3fe608060405234801561001057600080fd5b50600436106101165760003560e01c80633d2f5bda116100a25780638da5cb5b116100715780638da5cb5b146102d15780639a0e7d66146102ef578063a567dd751461030d578063a9ff6df11461033d578063c3403ddf1461036d57610116565b80633d2f5bda1461024b578063408e272714610267578063462e91ec146102855780635141e520146102a157610116565b80631ea736e0116100e95780631ea736e01461018f5780632d35a8a2146101ad5780633477ee2e146101cb57806335b8e820146101fd57806338db6dd31461022f57610116565b80630121b93f1461011b5780630d15fd77146101375780630deb56ab146101555780631e620cd414610173575b600080fd5b61013560048036038101906101309190611160565b610377565b005b61013f610635565b60405161014c919061119c565b60405180910390f35b61015d61063b565b60405161016a919061119c565b60405180910390f35b61018d60048036038101906101889190611160565b610645565b005b61019761079c565b6040516101a4919061119c565b60405180910390f35b6101b56107a2565b6040516101c2919061119c565b60405180910390f35b6101e560048036038101906101e09190611160565b6107a8565b6040516101f493929190611247565b60405180910390f35b61021760048036038101906102129190611160565b61085a565b60405161022693929190611247565b60405180910390f35b610249600480360381019061024491906112e3565b610991565b005b61026560048036038101906102609190611160565b610b8e565b005b61026f610c5a565b60405161027c919061132b565b60405180910390f35b61029f600480360381019061029a919061147b565b610c6d565b005b6102bb60048036038101906102b691906112e3565b610ec7565b6040516102c8919061119c565b60405180910390f35b6102d9610f10565b6040516102e691906114d3565b60405180910390f35b6102f7610f36565b604051610304919061119c565b60405180910390f35b610327600480360381019061032291906112e3565b610f40565b604051610334919061119c565b60405180910390f35b610357600480360381019061035291906112e3565b610f58565b604051610364919061132b565b60405180910390f35b610375610f78565b005b600560009054906101000a900460ff166103c6576040517f08c379a00000000000000000000000000000000000000000000000000000000081526004016103bd9061153a565b60405180910390fd5b806000806000838152602001908152602001600020600001541161041f576040517f08c379a0000000000000000000000000000000000000000000000000000000008152600401610416906115a6565b60405180910390fd5b6000600260003373ffffffffffffffffffffffffffffffffffffffff1673ffffffffffffffffffffffffffffffffffffffff16815260200190815260200160002054146104a1576040517f08c379a000000000000000000000000000000000000000000000000000000000815260040161049890611612565b60405180910390fd5b600160003373ffffffffffffffffffffffffffffffffffffffff1673ffffffffffffffffffffffffffffffffffffffff16815260200190815260200160002060009054906101000a900460ff1661052d576040517f08c379a00000000000000000000000000000000000000000000000000000000081526004016105249061167e565b60405180910390fd5b6006544210610571576040517f08c379a0000000000000000000000000000000000000000000000000000000008152600401610568906116ea565b60405180910390fd5b81600260003373ffffffffffffffffffffffffffffffffffffffff1673ffffffffffffffffffffffffffffffffffffffff1681526020019081526020016000208190555060008083815260200190815260200160002060020160008154809291906105db90611739565b9190505550600360008154809291906105f390611739565b91905055507fa36cc2bebb74db33e9f88110a07ef56e1b31b24b4c4f51b54b1664266e29f45b3383604051610629929190611781565b60405180910390a15050565b60035481565b6000600454905090565b600560019054906101000a900473ffffffffffffffffffffffffffffffffffffffff1673ffffffffffffffffffffffffffffffffffffffff163373ffffffffffffffffffffffffffffffffffffffff16146106d5576040517f08c379a00000000000000000000000000000000000000000000000000000000081526004016106cc9061181c565b60405180910390fd5b6000806000838152602001908152602001600020600001541161072d576040517f08c379a0000000000000000000000000000000000000000000000000000000008152600401610724906115a6565b60405180910390fd5b60008082815260200190815260200160002060008082016000905560018201600061075891906110b9565b600282016000905550507f5768df5843e58ec5b2fc92eb6ef81241e9ec50a0b93fd074dec58b39efc4172081604051610791919061119c565b60405180910390a150565b60065481565b60045481565b60006020528060005260406000206000915090508060000154908060010180546107d19061186b565b80601f01602080910402602001604051908101604052809291908181526020018280546107fd9061186b565b801561084a5780601f1061081f5761010080835404028352916020019161084a565b820191906000526020600020905b81548152906001019060200180831161082d57829003601f168201915b5050505050908060020154905083565b6000606060008060008086815260200190815260200160002060000154116108b7576040517f08c379a00000000000000000000000000000000000000000000000000000000081526004016108ae906115a6565b60405180910390fd5b60008085815260200190815260200160002060000154600080868152602001908152602001600020600101600080878152602001908152602001600020600201548180546109049061186b565b80601f01602080910402602001604051908101604052809291908181526020018280546109309061186b565b801561097d5780601f106109525761010080835404028352916020019161097d565b820191906000526020600020905b81548152906001019060200180831161096057829003601f168201915b505050505091509250925092509193909250565b600560019054906101000a900473ffffffffffffffffffffffffffffffffffffffff1673ffffffffffffffffffffffffffffffffffffffff163373ffffffffffffffffffffffffffffffffffffffff1614610a21576040517f08c379a0000000000000000000000000000000000000000000000000000000008152600401610a189061181c565b60405180910390fd5b600560009054906101000a900460ff16610a70576040517f08c379a0000000000000000000000000000000000000000000000000000000008152600401610a679061153a565b60405180910390fd5b600160008273ffffffffffffffffffffffffffffffffffffffff1673ffffffffffffffffffffffffffffffffffffffff16815260200190815260200160002060009054906101000a900460ff1615610afd576040517f08c379a0000000000000000000000000000000000000000000000000000000008152600401610af4906118e8565b60405180910390fd5b60018060008373ffffffffffffffffffffffffffffffffffffffff1673ffffffffffffffffffffffffffffffffffffffff16815260200190815260200160002060006101000a81548160ff0219169083151502179055507fb6be2187d059cc2a55fe29e0e503b566e1e0f8c8780096e185429350acffd3dd81604051610b8391906114d3565b60405180910390a150565b600560019054906101000a900473ffffffffffffffffffffffffffffffffffffffff1673ffffffffffffffffffffffffffffffffffffffff163373ffffffffffffffffffffffffffffffffffffffff1614610c1e576040517f08c379a0000000000000000000000000000000000000000000000000000000008152600401610c159061181c565b60405180910390fd5b6001600560006101000a81548160ff021916908315150217905550603c81610c469190611908565b42610c51919061194a565b60068190555050565b600560009054906101000a900460ff1681565b600560019054906101000a900473ffffffffffffffffffffffffffffffffffffffff1673ffffffffffffffffffffffffffffffffffffffff163373ffffffffffffffffffffffffffffffffffffffff1614610cfd576040517f08c379a0000000000000000000000000000000000000000000000000000000008152600401610cf49061181c565b60405180910390fd5b600560009054906101000a900460ff16610d4c576040517f08c379a0000000000000000000000000000000000000000000000000000000008152600401610d439061153a565b60405180910390fd5b6000600190505b6004548111610e115781604051602001610d6d91906119ba565b60405160208183030381529060405280519060200120600080838152602001908152602001600020600101604051602001610da89190611a69565b6040516020818303038152906040528051906020012003610dfe576040517f08c379a0000000000000000000000000000000000000000000000000000000008152600401610df590611acc565b60405180910390fd5b8080610e0990611739565b915050610d53565b5060046000815480929190610e2590611739565b91905055506040518060600160405280600454815260200182815260200160008152506000806004548152602001908152602001600020600082015181600001556020820151816001019081610e7b9190611c83565b50604082015181600201559050507fe83b2a43e7e82d975c8a0a6d2f045153c869e111136a34d1889ab7b598e396a360045482604051610ebc929190611d55565b60405180910390a150565b6000600260008373ffffffffffffffffffffffffffffffffffffffff1673ffffffffffffffffffffffffffffffffffffffff168152602001908152602001600020549050919050565b600560019054906101000a900473ffffffffffffffffffffffffffffffffffffffff1681565b6000600354905090565b60026020528060005260406000206000915090505481565b60016020528060005260406000206000915054906101000a900460ff1681565b600560019054906101000a900473ffffffffffffffffffffffffffffffffffffffff1673ffffffffffffffffffffffffffffffffffffffff163373ffffffffffffffffffffffffffffffffffffffff1614611008576040517f08c379a0000000000000000000000000000000000000000000000000000000008152600401610fff9061181c565b60405180910390fd5b600560009054906101000a900460ff16611057576040517f08c379a000000000000000000000000000000000000000000000000000000000815260040161104e90611dd1565b60405180910390fd5b60065442101561109c576040517f08c379a000000000000000000000000000000000000000000000000000000000815260040161109390611e3d565b60405180910390fd5b6000600560006101000a81548160ff021916908315150217905550565b5080546110c59061186b565b6000825580601f106110d757506110f6565b601f0160209004906000526020600020908101906110f591906110f9565b5b50565b5b808211156111125760008160009055506001016110fa565b5090565b6000604051905090565b600080fd5b600080fd5b6000819050919050565b61113d8161112a565b811461114857600080fd5b50565b60008135905061115a81611134565b92915050565b60006020828403121561117657611175611120565b5b60006111848482850161114b565b91505092915050565b6111968161112a565b82525050565b60006020820190506111b1600083018461118d565b92915050565b600081519050919050565b600082825260208201905092915050565b60005b838110156111f15780820151818401526020810190506111d6565b60008484015250505050565b6000601f19601f8301169050919050565b6000611219826111b7565b61122381856111c2565b93506112338185602086016111d3565b61123c816111fd565b840191505092915050565b600060608201905061125c600083018661118d565b818103602083015261126e818561120e565b905061127d604083018461118d565b949350505050565b600073ffffffffffffffffffffffffffffffffffffffff82169050919050565b60006112b082611285565b9050919050565b6112c0816112a5565b81146112cb57600080fd5b50565b6000813590506112dd816112b7565b92915050565b6000602082840312156112f9576112f8611120565b5b6000611307848285016112ce565b91505092915050565b60008115159050919050565b61132581611310565b82525050565b6000602082019050611340600083018461131c565b92915050565b600080fd5b600080fd5b7f4e487b7100000000000000000000000000000000000000000000000000000000600052604160045260246000fd5b611388826111fd565b810181811067ffffffffffffffff821117156113a7576113a6611350565b5b80604052505050565b60006113ba611116565b90506113c6828261137f565b919050565b600067ffffffffffffffff8211156113e6576113e5611350565b5b6113ef826111fd565b9050602081019050919050565b82818337600083830152505050565b600061141e611419846113cb565b6113b0565b90508281526020810184848401111561143a5761143961134b565b5b6114458482856113fc565b509392505050565b600082601f83011261146257611461611346565b5b813561147284826020860161140b565b91505092915050565b60006020828403121561149157611490611120565b5b600082013567ffffffffffffffff8111156114af576114ae611125565b5b6114bb8482850161144d565b91505092915050565b6114cd816112a5565b82525050565b60006020820190506114e860008301846114c4565b92915050565b7f566f74696e67206973206e6f7420616374697665000000000000000000000000600082015250565b60006115246014836111c2565b915061152f826114ee565b602082019050919050565b6000602082019050818103600083015261155381611517565b9050919050565b7f43616e64696461746520646f6573206e6f742065786973740000000000000000600082015250565b60006115906018836111c2565b915061159b8261155a565b602082019050919050565b600060208201905081810360008301526115bf81611583565b9050919050565b7f566f7465722068617320616c726561647920766f746564000000000000000000600082015250565b60006115fc6017836111c2565b9150611607826115c6565b602082019050919050565b6000602082019050818103600083015261162b816115ef565b9050919050565b7f566f746572206e6f742072656769737465726564000000000000000000000000600082015250565b60006116686014836111c2565b915061167382611632565b602082019050919050565b600060208201905081810360008301526116978161165b565b9050919050565b7f566f74696e6720706572696f642068617320656e646564000000000000000000600082015250565b60006116d46017836111c2565b91506116df8261169e565b602082019050919050565b60006020820190508181036000830152611703816116c7565b9050919050565b7f4e487b7100000000000000000000000000000000000000000000000000000000600052601160045260246000fd5b60006117448261112a565b91507fffffffffffffffffffffffffffffffffffffffffffffffffffffffffffffffff82036117765761177561170a565b5b600182019050919050565b600060408201905061179660008301856114c4565b6117a3602083018461118d565b9392505050565b7f4f6e6c7920746865206f776e65722063616e2063616c6c20746869732066756e60008201527f6374696f6e000000000000000000000000000000000000000000000000000000602082015250565b60006118066025836111c2565b9150611811826117aa565b604082019050919050565b60006020820190508181036000830152611835816117f9565b9050919050565b7f4e487b7100000000000000000000000000000000000000000000000000000000600052602260045260246000fd5b6000600282049050600182168061188357607f821691505b6020821081036118965761189561183c565b5b50919050565b7f566f74657220616c726561647920726567697374657265640000000000000000600082015250565b60006118d26018836111c2565b91506118dd8261189c565b602082019050919050565b60006020820190508181036000830152611901816118c5565b9050919050565b60006119138261112a565b915061191e8361112a565b925082820261192c8161112a565b915082820484148315176119435761194261170a565b5b5092915050565b60006119558261112a565b91506119608361112a565b92508282019050808211156119785761197761170a565b5b92915050565b600081905092915050565b6000611994826111b7565b61199e818561197e565b93506119ae8185602086016111d3565b80840191505092915050565b60006119c68284611989565b915081905092915050565b60008190508160005260206000209050919050565b600081546119f38161186b565b6119fd818661197e565b94506001821660008114611a185760018114611a2d57611a60565b60ff1983168652811515820286019350611a60565b611a36856119d1565b60005b83811015611a5857815481890152600182019150602081019050611a39565b838801955050505b50505092915050565b6000611a7582846119e6565b915081905092915050565b7f43616e64696461746520616c7265616479206578697374730000000000000000600082015250565b6000611ab66018836111c2565b9150611ac182611a80565b602082019050919050565b60006020820190508181036000830152611ae581611aa9565b9050919050565b60006020601f8301049050919050565b600082821b905092915050565b600060088302611b397fffffffffffffffffffffffffffffffffffffffffffffffffffffffffffffffff82611afc565b611b438683611afc565b95508019841693508086168417925050509392505050565b6000819050919050565b6000611b80611b7b611b768461112a565b611b5b565b61112a565b9050919050565b6000819050919050565b611b9a83611b65565b611bae611ba682611b87565b848454611b09565b825550505050565b600090565b611bc3611bb6565b611bce818484611b91565b505050565b5b81811015611bf257611be7600082611bbb565b600181019050611bd4565b5050565b601f821115611c3757611c08816119d1565b611c1184611aec565b81016020851015611c20578190505b611c34611c2c85611aec565b830182611bd3565b50505b505050565b600082821c905092915050565b6000611c5a60001984600802611c3c565b1980831691505092915050565b6000611c738383611c49565b9150826002028217905092915050565b611c8c826111b7565b67ffffffffffffffff811115611ca557611ca4611350565b5b611caf825461186b565b611cba828285611bf6565b600060209050601f831160018114611ced5760008415611cdb578287015190505b611ce58582611c67565b865550611d4d565b601f198416611cfb866119d1565b60005b82811015611d2357848901518255600182019150602085019450602081019050611cfe565b86831015611d405784890151611d3c601f891682611c49565b8355505b6001600288020188555050505b505050505050565b6000604082019050611d6a600083018561118d565b8181036020830152611d7c818461120e565b90509392505050565b7f566f74696e6720697320616c726561647920696e616374697665000000000000600082015250565b6000611dbb601a836111c2565b9150611dc682611d85565b602082019050919050565b60006020820190508181036000830152611dea81611dae565b9050919050565b7f566f74696e6720706572696f6420686173206e6f7420656e6465642079657400600082015250565b6000611e27601f836111c2565b9150611e3282611df1565b602082019050919050565b60006020820190508181036000830152611e5681611e1a565b905091905056fea2646970667358221220290c52875bbfdb427b7095ad0276d98a2dd7a768bd561ef218d0d307ae4365f564736f6c63430008110033",
  "linkReferences": {},
  "deployedLinkReferences": {}
}