{
  "_format": "hh-sol-artifact-1",
  "contractName": "Voting",
  "sourceName": "contracts/Voting.sol",
  "abi": [
    {
      "inputs": [],
      "stateMutability": "nonpayable",
      "type": "constructor"
    },
    {
      "anonymous": false,
      "inputs": [
        {
          "indexed": false,
          "internalType": "uint256",
          "name": "candidateId",
          "type": "uint256"
        },
        {
          "indexed": false,
          "internalType": "string",
          "name": "name",
          "type": "string"
        }
      ],
      "name": "CandidateAdded",
      "type": "event"
    },
    {
      "anonymous": false,
      "inputs": [
        {
          "indexed": false,
          "internalType": "uint256",
          "name": "candidateId",
          "type": "uint256"
        }
      ],
      "name": "CandidateDeleted",
      "type": "event"
    },
    {
      "anonymous": false,
      "inputs": [
        {
          "indexed": false,
          "internalType": "address",
          "name": "voter",
          "type": "address"
        },
        {
          "indexed": false,
          "internalType": "uint256",
          "name": "candidateId",
          "type": "uint256"
        }
      ],
      "name": "VoteCast",
      "type": "event"
    },
    {
      "anonymous": false,
      "inputs": [
        {
          "indexed": false,
          "internalType": "address",
          "name": "voter",
          "type": "address"
        }
      ],
      "name": "VoterRegistered",
      "type": "event"
    },
    {
      "inputs": [
        {
          "internalType": "string",
          "name": "_name",
          "type": "string"
        }
      ],
      "name": "addCandidate",
      "outputs": [],
      "stateMutability": "nonpayable",
      "type": "function"
    },
    {
      "inputs": [
        {
          "internalType": "uint256",
          "name": "",
          "type": "uint256"
        }
      ],
      "name": "candidates",
      "outputs": [
        {
          "internalType": "uint256",
          "name": "id",
          "type": "uint256"
        },
        {
          "internalType": "string",
          "name": "name",
          "type": "string"
        },
        {
          "internalType": "uint256",
          "name": "voteCount",
          "type": "uint256"
        }
      ],
      "stateMutability": "view",
      "type": "function"
    },
    {
      "inputs": [],
      "name": "candidatesCount",
      "outputs": [
        {
          "internalType": "uint256",
          "name": "",
          "type": "uint256"
        }
      ],
      "stateMutability": "view",
      "type": "function"
    },
    {
      "inputs": [
        {
          "internalType": "uint256",
          "name": "_candidateId",
          "type": "uint256"
        }
      ],
      "name": "deleteCandidate",
      "outputs": [],
      "stateMutability": "nonpayable",
      "type": "function"
    },
    {
      "inputs": [],
      "name": "endVoting",
      "outputs": [],
      "stateMutability": "nonpayable",
      "type": "function"
    },
    {
      "inputs": [
        {
          "internalType": "uint256",
          "name": "_candidateId",
          "type": "uint256"
        }
      ],
      "name": "getCandidate",
      "outputs": [
        {
          "internalType": "uint256",
          "name": "",
          "type": "uint256"
        },
        {
          "internalType": "string",
          "name": "",
          "type": "string"
        },
        {
          "internalType": "uint256",
          "name": "",
          "type": "uint256"
        }
      ],
      "stateMutability": "view",
      "type": "function"
    },
    {
      "inputs": [],
      "name": "getTotalCandidates",
      "outputs": [
        {
          "internalType": "uint256",
          "name": "",
          "type": "uint256"
        }
      ],
      "stateMutability": "view",
      "type": "function"
    },
    {
      "inputs": [],
      "name": "getTotalVotes",
      "outputs": [
        {
          "internalType": "uint256",
          "name": "",
          "type": "uint256"
        }
      ],
      "stateMutability": "view",
      "type": "function"
    },
    {
      "inputs": [
        {
          "internalType": "address",
          "name": "_voter",
          "type": "address"
        }
      ],
      "name": "getVoterVote",
      "outputs": [
        {
          "internalType": "uint256",
          "name": "",
          "type": "uint256"
        }
      ],
      "stateMutability": "view",
      "type": "function"
    },
    {
      "inputs": [],
      "name": "owner",
      "outputs": [
        {
          "internalType": "address",
          "name": "",
          "type": "address"
        }
      ],
      "stateMutability": "view",
      "type": "function"
    },
    {
      "inputs": [
        {
          "internalType": "address",
          "name": "_voter",
          "type": "address"
        }
      ],
      "name": "registerVoter",
      "outputs": [],
      "stateMutability": "nonpayable",
      "type": "function"
    },
    {
      "inputs": [
        {
          "internalType": "address",
          "name": "",
          "type": "address"
        }
      ],
      "name": "registeredVoters",
      "outputs": [
        {
          "internalType": "bool",
          "name": "",
          "type": "bool"
        }
      ],
      "stateMutability": "view",
      "type": "function"
    },
    {
      "inputs": [],
      "name": "totalVotes",
      "outputs": [
        {
          "internalType": "uint256",
          "name": "",
          "type": "uint256"
        }
      ],
      "stateMutability": "view",
      "type": "function"
    },
    {
      "inputs": [
        {
          "internalType": "uint256",
          "name": "_candidateId",
          "type": "uint256"
        }
      ],
      "name": "vote",
      "outputs": [],
      "stateMutability": "nonpayable",
      "type": "function"
    },
    {
      "inputs": [
        {
          "internalType": "address",
          "name": "",
          "type": "address"
        }
      ],
      "name": "voterToCandidate",
      "outputs": [
        {
          "internalType": "uint256",
          "name": "",
          "type": "uint256"
        }
      ],
      "stateMutability": "view",
      "type": "function"
    },
    {
      "inputs": [],
      "name": "votingActive",
      "outputs": [
        {
          "internalType": "bool",
          "name": "",
          "type": "bool"
        }
      ],
      "stateMutability": "view",
      "type": "function"
    }
  ],
  "bytecode": "0x608060405234801561001057600080fd5b50600060038190555060006004819055506001600560006101000a81548160ff02191690831515021790555033600560016101000a81548173ffffffffffffffffffffffffffffffffffffffff021916908373ffffffffffffffffffffffffffffffffffffffff1602179055506115fe8061008c6000396000f3fe608060405234801561001057600080fd5b50600436106101005760003560e01c8063408e2727116100975780639a0e7d66116100665780639a0e7d661461029f578063a567dd75146102bd578063a9ff6df1146102ed578063c3403ddf1461031d57610100565b8063408e272714610217578063462e91ec146102355780635141e520146102515780638da5cb5b1461028157610100565b80632d35a8a2116100d35780632d35a8a2146101795780633477ee2e1461019757806335b8e820146101c957806338db6dd3146101fb57610100565b80630121b93f146101055780630d15fd77146101215780630deb56ab1461013f5780631e620cd41461015d575b600080fd5b61011f600480360381019061011a9190610c04565b610327565b005b610129610550565b6040516101369190610c40565b60405180910390f35b610147610556565b6040516101549190610c40565b60405180910390f35b61017760048036038101906101729190610c04565b610560565b005b610181610627565b60405161018e9190610c40565b60405180910390f35b6101b160048036038101906101ac9190610c04565b61062d565b6040516101c093929190610ceb565b60405180910390f35b6101e360048036038101906101de9190610c04565b6106df565b6040516101f293929190610ceb565b60405180910390f35b61021560048036038101906102109190610d87565b6107bf565b005b61021f6108dd565b60405161022c9190610dcf565b60405180910390f35b61024f600480360381019061024a9190610f1f565b6108f0565b005b61026b60048036038101906102669190610d87565b6109ff565b6040516102789190610c40565b60405180910390f35b610289610a48565b6040516102969190610f77565b60405180910390f35b6102a7610a6e565b6040516102b49190610c40565b60405180910390f35b6102d760048036038101906102d29190610d87565b610a78565b6040516102e49190610c40565b60405180910390f35b61030760048036038101906103029190610d87565b610a90565b6040516103149190610dcf565b60405180910390f35b610325610ab0565b005b600160003373ffffffffffffffffffffffffffffffffffffffff1673ffffffffffffffffffffffffffffffffffffffff16815260200190815260200160002060009054906101000a900460ff166103b3576040517f08c379a00000000000000000000000000000000000000000000000000000000081526004016103aa90610fde565b60405180910390fd5b6000806000838152602001908152602001600020600001540361040b576040517f08c379a00000000000000000000000000000000000000000000000000000000081526004016104029061104a565b60405180910390fd5b6000600260003373ffffffffffffffffffffffffffffffffffffffff1673ffffffffffffffffffffffffffffffffffffffff168152602001908152602001600020541461048d576040517f08c379a0000000000000000000000000000000000000000000000000000000008152600401610484906110b6565b60405180910390fd5b80600260003373ffffffffffffffffffffffffffffffffffffffff1673ffffffffffffffffffffffffffffffffffffffff1681526020019081526020016000208190555060008082815260200190815260200160002060020160008154809291906104f790611105565b91905055506003600081548092919061050f90611105565b91905055507fa36cc2bebb74db33e9f88110a07ef56e1b31b24b4c4f51b54b1664266e29f45b338260405161054592919061114d565b60405180910390a150565b60035481565b6000600454905090565b600080600083815260200190815260200160002060000154036105b8576040517f08c379a00000000000000000000000000000000000000000000000000000000081526004016105af9061104a565b60405180910390fd5b6000808281526020019081526020016000206000808201600090556001820160006105e39190610b5d565b600282016000905550507f5768df5843e58ec5b2fc92eb6ef81241e9ec50a0b93fd074dec58b39efc417208160405161061c9190610c40565b60405180910390a150565b60045481565b6000602052806000526040600020600091509050806000015490806001018054610656906111a5565b80601f0160208091040260200160405190810160405280929190818152602001828054610682906111a5565b80156106cf5780601f106106a4576101008083540402835291602001916106cf565b820191906000526020600020905b8154815290600101906020018083116106b257829003601f168201915b5050505050908060020154905083565b6000606060008060008581526020019081526020016000206000015460008086815260200190815260200160002060010160008087815260200190815260200160002060020154818054610732906111a5565b80601f016020809104026020016040519081016040528092919081815260200182805461075e906111a5565b80156107ab5780601f10610780576101008083540402835291602001916107ab565b820191906000526020600020905b81548152906001019060200180831161078e57829003601f168201915b505050505091509250925092509193909250565b600160008273ffffffffffffffffffffffffffffffffffffffff1673ffffffffffffffffffffffffffffffffffffffff16815260200190815260200160002060009054906101000a900460ff161561084c576040517f08c379a000000000000000000000000000000000000000000000000000000000815260040161084390611222565b60405180910390fd5b60018060008373ffffffffffffffffffffffffffffffffffffffff1673ffffffffffffffffffffffffffffffffffffffff16815260200190815260200160002060006101000a81548160ff0219169083151502179055507fb6be2187d059cc2a55fe29e0e503b566e1e0f8c8780096e185429350acffd3dd816040516108d29190610f77565b60405180910390a150565b600560009054906101000a900460ff1681565b60008060006004548152602001908152602001600020600001541461094a576040517f08c379a00000000000000000000000000000000000000000000000000000000081526004016109419061128e565b60405180910390fd5b604051806060016040528060045481526020018281526020016000815250600080600454815260200190815260200160002060008201518160000155602082015181600101908161099b919061145a565b50604082015181600201559050507fe83b2a43e7e82d975c8a0a6d2f045153c869e111136a34d1889ab7b598e396a3600454826040516109dc92919061152c565b60405180910390a1600460008154809291906109f790611105565b919050555050565b6000600260008373ffffffffffffffffffffffffffffffffffffffff1673ffffffffffffffffffffffffffffffffffffffff168152602001908152602001600020549050919050565b600560019054906101000a900473ffffffffffffffffffffffffffffffffffffffff1681565b6000600354905090565b60026020528060005260406000206000915090505481565b60016020528060005260406000206000915054906101000a900460ff1681565b600560019054906101000a900473ffffffffffffffffffffffffffffffffffffffff1673ffffffffffffffffffffffffffffffffffffffff163373ffffffffffffffffffffffffffffffffffffffff1614610b40576040517f08c379a0000000000000000000000000000000000000000000000000000000008152600401610b37906115a8565b60405180910390fd5b6000600560006101000a81548160ff021916908315150217905550565b508054610b69906111a5565b6000825580601f10610b7b5750610b9a565b601f016020900490600052602060002090810190610b999190610b9d565b5b50565b5b80821115610bb6576000816000905550600101610b9e565b5090565b6000604051905090565b600080fd5b600080fd5b6000819050919050565b610be181610bce565b8114610bec57600080fd5b50565b600081359050610bfe81610bd8565b92915050565b600060208284031215610c1a57610c19610bc4565b5b6000610c2884828501610bef565b91505092915050565b610c3a81610bce565b82525050565b6000602082019050610c556000830184610c31565b92915050565b600081519050919050565b600082825260208201905092915050565b60005b83811015610c95578082015181840152602081019050610c7a565b60008484015250505050565b6000601f19601f8301169050919050565b6000610cbd82610c5b565b610cc78185610c66565b9350610cd7818560208601610c77565b610ce081610ca1565b840191505092915050565b6000606082019050610d006000830186610c31565b8181036020830152610d128185610cb2565b9050610d216040830184610c31565b949350505050565b600073ffffffffffffffffffffffffffffffffffffffff82169050919050565b6000610d5482610d29565b9050919050565b610d6481610d49565b8114610d6f57600080fd5b50565b600081359050610d8181610d5b565b92915050565b600060208284031215610d9d57610d9c610bc4565b5b6000610dab84828501610d72565b91505092915050565b60008115159050919050565b610dc981610db4565b82525050565b6000602082019050610de46000830184610dc0565b92915050565b600080fd5b600080fd5b7f4e487b7100000000000000000000000000000000000000000000000000000000600052604160045260246000fd5b610e2c82610ca1565b810181811067ffffffffffffffff82111715610e4b57610e4a610df4565b5b80604052505050565b6000610e5e610bba565b9050610e6a8282610e23565b919050565b600067ffffffffffffffff821115610e8a57610e89610df4565b5b610e9382610ca1565b9050602081019050919050565b82818337600083830152505050565b6000610ec2610ebd84610e6f565b610e54565b905082815260208101848484011115610ede57610edd610def565b5b610ee9848285610ea0565b509392505050565b600082601f830112610f0657610f05610dea565b5b8135610f16848260208601610eaf565b91505092915050565b600060208284031215610f3557610f34610bc4565b5b600082013567ffffffffffffffff811115610f5357610f52610bc9565b5b610f5f84828501610ef1565b91505092915050565b610f7181610d49565b82525050565b6000602082019050610f8c6000830184610f68565b92915050565b7f566f746572206e6f742072656769737465726564000000000000000000000000600082015250565b6000610fc8601483610c66565b9150610fd382610f92565b602082019050919050565b60006020820190508181036000830152610ff781610fbb565b9050919050565b7f43616e64696461746520646f6573206e6f742065786973740000000000000000600082015250565b6000611034601883610c66565b915061103f82610ffe565b602082019050919050565b6000602082019050818103600083015261106381611027565b9050919050565b7f566f7465722068617320616c726561647920766f746564000000000000000000600082015250565b60006110a0601783610c66565b91506110ab8261106a565b602082019050919050565b600060208201905081810360008301526110cf81611093565b9050919050565b7f4e487b7100000000000000000000000000000000000000000000000000000000600052601160045260246000fd5b600061111082610bce565b91507fffffffffffffffffffffffffffffffffffffffffffffffffffffffffffffffff8203611142576111416110d6565b5b600182019050919050565b60006040820190506111626000830185610f68565b61116f6020830184610c31565b9392505050565b7f4e487b7100000000000000000000000000000000000000000000000000000000600052602260045260246000fd5b600060028204905060018216806111bd57607f821691505b6020821081036111d0576111cf611176565b5b50919050565b7f566f74657220616c726561647920726567697374657265640000000000000000600082015250565b600061120c601883610c66565b9150611217826111d6565b602082019050919050565b6000602082019050818103600083015261123b816111ff565b9050919050565b7f43616e64696461746520616c7265616479206578697374730000000000000000600082015250565b6000611278601883610c66565b915061128382611242565b602082019050919050565b600060208201905081810360008301526112a78161126b565b9050919050565b60008190508160005260206000209050919050565b60006020601f8301049050919050565b600082821b905092915050565b6000600883026113107fffffffffffffffffffffffffffffffffffffffffffffffffffffffffffffffff826112d3565b61131a86836112d3565b95508019841693508086168417925050509392505050565b6000819050919050565b600061135761135261134d84610bce565b611332565b610bce565b9050919050565b6000819050919050565b6113718361133c565b61138561137d8261135e565b8484546112e0565b825550505050565b600090565b61139a61138d565b6113a5818484611368565b505050565b5b818110156113c9576113be600082611392565b6001810190506113ab565b5050565b601f82111561140e576113df816112ae565b6113e8846112c3565b810160208510156113f7578190505b61140b611403856112c3565b8301826113aa565b50505b505050565b600082821c905092915050565b600061143160001984600802611413565b1980831691505092915050565b600061144a8383611420565b9150826002028217905092915050565b61146382610c5b565b67ffffffffffffffff81111561147c5761147b610df4565b5b61148682546111a5565b6114918282856113cd565b600060209050601f8311600181146114c457600084156114b2578287015190505b6114bc858261143e565b865550611524565b601f1984166114d2866112ae565b60005b828110156114fa578489015182556001820191506020850194506020810190506114d5565b868310156115175784890151611513601f891682611420565b8355505b6001600288020188555050505b505050505050565b60006040820190506115416000830185610c31565b81810360208301526115538184610cb2565b90509392505050565b7f4f6e6c7920746865206f776e65722063616e20656e6420766f74696e67000000600082015250565b6000611592601d83610c66565b915061159d8261155c565b602082019050919050565b600060208201905081810360008301526115c181611585565b905091905056fea264697066735822122057c763f1442c08cbf93fbba4219ec096e43560ae65869ce7cd039f8d4202a59664736f6c63430008110033",
  "linkReferences": {},
  "deployedLinkReferences": {}
}